:100000000C942A000C943E000C9471000C94A000F7
:100010000C943C000C943C000C943C000C94670342
:100020000C943C000C943C000C943C000C943C0060
:100030000C943C000C943C000C943C000C943C0050
:100040000C943C000C943C000C943C000C943C0040
:100050000C943C0011241FBECFE5D8E0DEBFCDBF1D
:1000600010E0A0E6B0E001C01D92A137B107E1F7B2
:100070000E943F010C9488030C9400001F920F9281
:100080000FB60F9211248F93AF93BF93EF93FF930B
:10009000DF93CF93CDB7DEB7A5E3B0E0E5E3F0E0C3
:1000A0008081807F8C931092600010926300109288
:1000B0006400109261001092650010926600109228
:1000C00062001092670010926800CF91DF91FF915B
:1000D000EF91BF91AF918F910F900FBE0F901F9036
:1000E00018951F920F920FB60F9211248F93AF9312
:1000F000BF93EF93FF93DF93CF93CDB7DEB7AEE41B
:10010000B0E0EEE4F0E080818E7F8C93AEE4B0E06E
:10011000EEE4F0E080818D7F8C93AEE4B0E0EEE41D
:10012000F0E080818B7F8C93CF91DF91FF91EF91F5
:10013000BF91AF918F910F900FBE0F901F901895A8
:100140001F920F920FB60F9211248F93AF93BF930C
:10015000EF93FF93DF93CF93CDB7DEB7AEE4B0E07C
:10016000EEE4F0E080818E7F8C93AEE4B0E0EEE4CC
:10017000F0E0808182608C93AEE4B0E0EEE4F0E0E9
:1001800080818B7F8C93CF91DF91FF91EF91BF9115
:10019000AF918F910F900FBE0F901F901895DF9326
:1001A000CF93CDB7DEB7A1E3B0E0E1E3F0E080812B
:1001B0008B7F8C93A2E3B0E0E2E3F0E08081846087
:1001C0008C93A5E5B0E0E5E5F0E080818E7F8C932F
:1001D000A5E5B0E0E5E5F0E0808182608C93ABE5D9
:1001E000B0E0EBE5F0E0808180648C93CF91DF910B
:1001F0000895DF93CF93CDB7DEB7A1E3B0E0E1E39D
:10020000F0E08081877F8C93A5E5B0E0E5E5F0E044
:10021000808184608C93A5E5B0E0E5E5F0E0808125
:1002200088608C93ABE5B0E0EBE5F0E0808180681E
:100230008C93CF91DF910895DF93CF93CDB7DEB745
:10024000A7E3B0E0E7E3F0E080818B7F8C93A8E345
:10025000B0E0E8E3F0E0808184608C93A4E5B0E056
:10026000E4E5F0E0808180648C93ABE5B0E0EBE501
:10027000F0E0808180628C93CF91DF910895DF93CD
:10028000CF93CDB7DEB70E9410030E94CF000E942B
:10029000F9000E941C010E945F01AFE5B0E0EFE5AC
:1002A000F0E0808180688C930E940402809170004D
:1002B0008130D1F70E949E0110927000F5CFDF933C
:1002C000CF93CDB7DEB7A4E3B0E0E4E3F0E0808104
:1002D00081608C93A4E3B0E0E4E3F0E0808182608D
:1002E0008C93A4E3B0E0E4E3F0E0808184608C933D
:1002F000A4E3B0E0E4E3F0E0808188608C93A5E3C0
:10030000B0E0E5E3F0E080818E7F8C93A5E3B0E080
:10031000E5E3F0E080818D7F8C93A5E3B0E0E5E339
:10032000F0E080818B7F8C93A5E3B0E0E5E3F0E023
:100330008081877F8C93CF91DF910895DF93CF9356
:10034000CDB7DEB7809160008F5F809360008091B1
:1003500060008C3338F010926000809161008F5FF4
:1003600080936100809161008C3338F010926100BD
:10037000809162008F5F809362008091620088317B
:1003800030F0109260001092610010926200CF91E4
:10039000DF910895DF93CF93CDB7DEB780916000F2
:1003A0009AE0692F0E947C03892F80936A008091D4
:1003B00060009AE0692F0E947C0380936B0080911B
:1003C00061009AE0692F0E947C03892F80936C0062
:1003D000809161009AE0692F0E947C0380936D00F8
:1003E000809162009AE0692F0E947C03892F80939C
:1003F0006E00809162009AE0692F0E947C038093D6
:100400006F00CF91DF910895DF93CF9300D0CDB7E8
:10041000DEB70E94CA0110926900F8C0809169009D
:10042000282F30E03A83298389819A81823091058F
:1004300009F464C029813A812330310554F489815B
:100440009A810097C9F029813A8121303105A9F1BB
:10045000D8C089819A818430910509F491C029819D
:100460003A81243031050CF46AC089819A81853043
:10047000910509F4A6C0C5C0ABE3B0E0EBE3F0E042
:100480008081807C8C93ABE3B0E0EBE3F0E0808193
:1004900080628C93A5E3B0E0E5E3F0E08081282F53
:1004A000207F80916900882F90E0FC01E659FF4F82
:1004B00080818F70822B8C93A4C0ABE3B0E0EBE320
:1004C000F0E08081807C8C93ABE3B0E0EBE3F0E084
:1004D000808180618C93A5E3B0E0E5E3F0E080816A
:1004E000282F207F80916900882F90E0FC01E65939
:1004F000FF4F80818F70822B8C9383C0ABE3B0E081
:10050000EBE3F0E08081807C8C93ABE3B0E0EBE345
:10051000F0E0808188608C93A5E3B0E0E5E3F0E053
:100520008081282F207F80916900882F90E0FC0136
:10053000E659FF4F80818F70822B8C9362C0ABE3B2
:10054000B0E0EBE3F0E08081807C8C93ABE3B0E043
:10055000EBE3F0E0808184608C93A5E3B0E0E5E319
:10056000F0E08081282F207F80916900882F90E023
:10057000FC01E659FF4F80818F70822B8C9341C024
:10058000ABE3B0E0EBE3F0E08081807C8C93ABE305
:10059000B0E0EBE3F0E0808182608C93A5E3B0E013
:1005A000E5E3F0E08081282F207F80916900882F8B
:1005B00090E0FC01E659FF4F80818F70822B8C9375
:1005C00020C0ABE3B0E0EBE3F0E08081807C8C9373
:1005D000ABE3B0E0EBE3F0E0808181608C93A5E3D6
:1005E000B0E0E5E3F0E08081282F207F8091690072
:1005F000882F90E0FC01E659FF4F80818F70822B9D
:100600008C93809169008F5F80936900809169006D
:10061000863008F403CF0F900F90CF91DF910895AB
:10062000DF93CF93CDB7DEB7ECE4F0E01182108218
:10063000AFE4B0E0EFE4F0E0808188608C93AFE459
:10064000B0E0EFE4F0E080818E7F8C93AFE4B0E027
:10065000EFE4F0E080818D7F8C93AFE4B0E0EFE4D5
:10066000F0E0808188608C93AFE4B0E0EFE4F0E0EC
:1006700080818F7E8C93EAE4F0E083E294EF9183B3
:100680008083A9E5B0E0E9E5F0E0808180618C93AA
:10069000A8E5B0E0E8E5F0E0808180618C93AEE40D
:1006A000B0E0EEE4F0E080818E7F8C93AEE4B0E0C9
:1006B000EEE4F0E0808182608C93AEE4B0E0EEE4A2
:1006C000F0E080818B7F8C93CF91DF9108951F9212
:1006D0000F920FB60F9211248F93DF93CF93CDB764
:1006E000DEB781E080937000CF91DF918F910F9002
:1006F0000FBE0F901F901895991B79E004C0991FA9
:10070000961708F0961B881F7A95C9F7809508956B
:04071000F894FFCF8B
:00000001FF
